{
  "contractName": "MerkleX",
  "abi": [
    {
      "inputs": [],
      "payable": false,
      "stateMutability": "nonpayable",
      "type": "constructor"
    },
    {
      "constant": false,
      "inputs": [
        {
          "name": "position",
          "type": "uint256"
        },
        {
          "name": "word_count",
          "type": "uint8"
        },
        {
          "name": "word1",
          "type": "bytes32"
        },
        {
          "name": "word2",
          "type": "bytes32"
        },
        {
          "name": "word3",
          "type": "bytes32"
        },
        {
          "name": "word4",
          "type": "bytes32"
        }
      ],
      "name": "push_data",
      "outputs": [],
      "payable": false,
      "stateMutability": "nonpayable",
      "type": "function"
    }
  ],
  "bytecode": "0x608060405234801561001057600080fd5b5033600760006101000a81548173ffffffffffffffffffffffffffffffffffffffff021916908373ffffffffffffffffffffffffffffffffffffffff1602179055506105b3806100616000396000f300608060405260043610610041576000357c0100000000000000000000000000000000000000000000000000000000900463ffffffff1680632d3bcb8114610046575b600080fd5b34801561005257600080fd5b506100b660048036038101908080359060200190929190803560ff16906020019092919080356000191690602001909291908035600019169060200190929190803560001916906020019092919080356000191690602001909291905050506100b8565b005b60008060006100c5610564565b600080600760009054906101000a900473ffffffffffffffffffffffffffffffffffffffff1673ffffffffffffffffffffffffffffffffffffffff163373ffffffffffffffffffffffffffffffffffffffff1614151561012457610556565b8b60055414151561013457610556565b8a60ff16620100020362ffffff166006546005540310151561015557610556565b4295506064600454870381151561016857fe5b049450610100851015156101cd577f7fffffffffffffffffffffffffffffffffffffffffffffffffffffffffffffff86166001026003600061ffff8f1681526020019081526020016000208160001916905550856004819055506000945060018c019b505b60e8859060020a02935060407f01000000000000000000000000000000000000000000000000000000000000000260c07f0100000000000000000000000000000000000000000000000000000000000000028b600060208110151561022e57fe5b1a7f010000000000000000000000000000000000000000000000000000000000000002167effffffffffffffffffffffffffffffffffffffffffffffffffffffffffffff191614151561028057600080fd5b6080604051908101604052808b600019166000191681526020018a6000191660001916815260200189600019166000191681526020018860001916600019168152509250600091505b8a60ff168260ff16101561054e57828260ff166004811015156102e857fe5b6020020151905060407f01000000000000000000000000000000000000000000000000000000000000000260c07f01000000000000000000000000000000000000000000000000000000000000000282600060208110151561034657fe5b1a7f010000000000000000000000000000000000000000000000000000000000000002167effffffffffffffffffffffffffffffffffffffffffffffffffffffffffffff191614156104715760007f01000000000000000000000000000000000000000000000000000000000000000260037f0100000000000000000000000000000000000000000000000000000000000000028260016020811015156103e957fe5b1a7f010000000000000000000000000000000000000000000000000000000000000002167effffffffffffffffffffffffffffffffffffffffffffffffffffffffffffff191614151561043b57600080fd5b837fffff00ffffffffffffffffffffffffffffffffffffffffffffffffffffffffff60010282166001900417600102905061051b565b60807f01000000000000000000000000000000000000000000000000000000000000000260c07f0100000000000000000000000000000000000000000000000000000000000000028260006020811015156104c857fe5b1a7f010000000000000000000000000000000000000000000000000000000000000002167effffffffffffffffffffffffffffffffffffffffffffffffffffffffffffff191614151561051a57600080fd5b5b806003600061ffff8f168152602001908152602001600020816000191690555060018c019b5081806001019250506102c9565b8b6005819055505b505050505050505050505050565b6080604051908101604052806004906020820280388339808201915050905050905600a165627a7a723058202ce412bc596f69a136c38a1375c6a8f67270644ef3ac04bb14e1044b937cf7200029",
  "source": "pragma solidity ^0.4.23;\n\n// contract ERC20 {\n//   function balanceOf(address tokenOwner) public constant returns (uint balance);\n//   function transfer(address to, uint tokens) public returns (bool success);\n// }\n\ncontract MerkleX {\n  uint64 constant PENDING_TRADE_BLOCKS = 1440; // ~5 hours\n\n  /*\n     Message Components\n\n     Timestamp - 256\n     |   2 |   2 | word_type=0 (timestamp) :: 0 = timestamp\n     | 254 | 256 | timestamp\n\n\n     Trade Header - 24\n     |  2 |   2 | word_type=0 (trade) :: 0 = timestamp, 1 = trade_start, 2 = trade_continue\n     | 11 |  13 | token_id\n     |  1 |  14 | is_buy :: 0=sell, 1=buy\n     |  2 |  16 | state :: 0=pending, 1=confirmed, 2=contested, 3=broken\n\n     |  8 |  24 | timestamp_offset (100s)\n\n\n     Account Header - 32\n     |  2 |   2 | word_type=1 (trade_continue) :: 0 = timestamp, 1 = trade_start, 2 = trade_continue\n     | 30 |  32 | account_id\n\n\n     Word End - 2\n     |  2 |   2 | ext_type=3 (end) :: 0/1 = order, 2 = trade_continue, 3 = end\n\n\n     Order Id - 16\n     | 16 |  16 | order_id\n\n\n     Order Details - 48\n     |  1 |   1 | ext_type=0 (order) :: 0 = order, 1 = account_header (fits with word_type)\n     |  7 |   8 | quantity_sig\n\n     |  5 |  13 | quantity_scale\n     |  5 |  18 | price_scale\n     | 14 |  32 | price_sig\n\n     | 16 |  48 | order_id\n\n     \n     Enumerated Message Possiblities\n\n     Trade\n     |  TradeHeader     |  24 |     | header\n     |  Account Header  |  32 |     | taker_account\n     |  Order Id        |  16 |     | taker_order\n     |  Account Header  |  32 |     | maker_account\n     |  Order Details   |  48 |     | maker_order_1\n     |  Order Details   |  48 |     | maker_order_2\n     |  Order Details   |  48 |     | maker_order_3\n\n     Trade\n     |  TradeHeader     |  24 |     | header\n     |  Account Header  |  32 |     | taker_account\n     |  Order Id        |  16 |     | taker_order\n     |  Account Header  |  32 |     | maker_account\n     |  Order Details   |  48 |     | maker_order_1\n     |  Order Details   |  48 |     | maker_order_2\n     |  Word End        |  2  |     | word_end\n\n     Trade\n     |  TradeHeader     |  24 |     | header\n     |  Account Header  |  32 |     | taker_account\n     |  Order Id        |  16 |     | taker_order\n     |  Account Header  |  32 |     | maker_account\n     |  Order Details   |  48 |     | maker_order_1\n     |  Word End        |  48 |     | end\n\n     Trade \n     |  TradeHeader     |  24 |     | header\n     |  Account Header  |  32 |     | taker_account\n     |  Order Id        |  16 |     | taker_order\n     |  Account Header  |  32 |     | maker_account_1\n     |  Order Details   |  48 |     | maker_order_1\n     |  Account Header  |  32 |     | maker_account_2\n     |  Order Details   |  48 |     | maker_order_2\n\n     Makers\n     |  Account Header  |  32 |     | maker_account\n     |  Order Details   |  48 |     | maker_order_1\n     |  Order Details   |  48 |     | maker_order_2\n     |  Order Details   |  48 |     | maker_order_3\n     |  Order Details   |  48 |     | maker_order_4\n\n     Makers\n     |  Account Header  |  32 |     | maker_account_1\n     |  Order Details   |  48 |     | maker_order_1\n     |  Account Header  |  32 |     | maker_account_2\n     |  Order Details   |  48 |     | maker_order_2\n     |  Account Header  |  32 |     | maker_account_3\n     |  Order Details   |  48 |     | maker_order_3\n   */\n\n  mapping(uint16 => address) token_addresses;\n  mapping(uint32 => address) user_sessions;\n  mapping(address => mapping(uint16 => uint256)) balances;\n  mapping(uint256 => bytes32) data;\n\n  uint256 base_timestamp;\n\n  uint256 write_head;\n  uint256 read_head;\n\n  address owner;\n\n  function push_data(uint256 position, uint8 word_count,\n                     bytes32 word1, bytes32 word2,\n                     bytes32 word3, bytes32 word4) public {\n    if (msg.sender != owner) {\n      return;\n    }\n\n    if (write_head != position) {\n      return;\n    }\n\n    if (write_head - read_head >= 65538 - word_count) {\n      return;\n    }\n\n    uint256 current_time = block.timestamp;\n    uint256 time_offset = (current_time - base_timestamp) / 100;\n\n    // Insert a timestamp if offset would overflow\n    if (time_offset >= 256) {\n      data[position & 65535] = bytes32(current_time & ((2**255) - 1)); // mod for sanity check\n      base_timestamp = current_time;\n      time_offset = 0;\n      position += 1;\n    }\n\n    uint256 timestamp = time_offset << (256-24);\n\n    // type is trade\n    require(word1[0] & 192 == 64);\n\n    bytes32[4] memory words = [word1, word2, word3, word4];\n\n    for (uint8 i = 0; i < word_count; i++) {\n      bytes32 word = words[i];\n\n      // is trade\n      if (word[0] & 192 == 64) {\n        // state is pending\n        require(word[1] & 3 == 0);\n\n        // set timestamp_offset\n        word = bytes32(uint256(word & ~(255 << (256-24))) | timestamp);\n      }\n      else {\n        // is trade_continue\n        require(word[0] & 192 == 128);\n      }\n\n      data[position & 65535] = word;\n      position += 1;\n    }\n\n    write_head = position;\n  }\n\n  constructor() public {\n    owner = msg.sender;\n  }\n\n//  function updatedBalances() internal constant returns (mapping(uint32 => mapping(\n//\n//  function balanceOf(address account, address token) public constant returns (uint256 balance) {\n//    return balances[accounts[account]][tokens[token]];\n//  }\n//\n//  // Helpful function only to be used offline to check balance\n//  function calcBalanceOf(address account, address token)\n//  public constant returns (uint256 balnace) {\n//    uint32 account_id = accounts[account];\n//    uint16 token_id = tokens[token];\n//\n//    uint256 balance = balances[account_id][token_id];\n//\n//    for (uint64 pos = next_process_trade_id; pos < next_trade_id; pos++) {\n//      Trade storage trade = pending_trades[pos];\n//\n//      // Already applied\n//      if (trade.state >= 20) {\n//        continue;\n//      }\n//\n//      uint8 i;\n//      uint256 amount;\n//\n//      if (trade.token_to_buyer == token_id) {\n//        if (trade.buyer_account_id == account_id) {\n//          for (i = 0; i < trade.sellers_count; i++) {\n//            balance = balance + amt(trade.sellers[i].to_buyer);\n//          }\n//        }\n//        else {\n//          for (i = 0; i < trade.sellers_count; i++) {\n//            if (trade.sellers[i].account_id == account_id) {\n//              amount = amt(trade.sellers[i].to_buyer);\n//              require(balance >= amount);\n//              balance = balance - amount;\n//            }\n//          }\n//        }\n//      }\n//      else if (trade.token_to_seller == token_id) {\n//        if (trade.buyer_account_id == account_id) {\n//          for (i = 0; i < trade.sellers_count; i++) {\n//            amount = amt(trade.sellers[i].to_seller);\n//            require(balance >= amount);\n//            balance = balance - amount;\n//          }\n//        }\n//        else {\n//          for (i = 0; i < trade.sellers_count; i++) {\n//            if (trade.sellers[i].account_id == account_id) {\n//              balance = balance + amt(trade.sellers[i].to_seller);\n//            }\n//          }\n//        }\n//      }\n//    }\n//  }\n//\n//  function process_next() public returns (bool processed) {\n//    if (next_process_trade_id >= next_trade_id) {\n//      return false;\n//    }\n//\n//    Trade storage trade = pending_trades[next_process_trade_id];\n//\n//    // Trade must not be contested or must be resolved\n//    if (trade.state >= 10) {\n//      return false;\n//    }\n//\n//    // Is trade old enough to process\n//    if (trade.block_number + PENDING_TRADE_BLOCKS <= block.number) {\n//      return false;\n//    }\n//\n//    uint256 buyer_in_balance = balances[trade.buyer_account_id][trade.token_to_buyer];\n//    uint256 buyer_out_balance = balances[trade.buyer_account_id][trade.token_to_seller];\n//\n//    for (uint8 i = 0; i < trade.sellers_count; i++) {\n//      Seller storage seller = trade.sellers[i];\n//\n//      uint256 to_buyer = amt(seller.to_buyer);\n//      uint256 to_seller = amt(seller.to_seller);\n//\n//      require(buyer_out_balance >= to_seller);\n//      buyer_out_balance = buyer_out_balance - to_seller;\n//      buyer_in_balance  = buyer_in_balance + to_buyer;\n//\n//      uint256 seller_in_balance = balances[seller.account_id][trade.token_to_seller];\n//      uint256 seller_out_balance = balances[seller.account_id][trade.token_to_buyer];\n//\n//      require(seller_out_balance >= to_buyer);\n//      balances[seller.account_id][trade.token_to_buyer] = seller_out_balance - to_buyer;\n//      balances[seller.account_id][trade.token_to_seller] = seller_in_balance - to_seller;\n//    }\n//\n//    balances[trade.buyer_account_id][trade.token_to_buyer] = buyer_in_balance;\n//    balances[trade.buyer_account_id][trade.token_to_seller] = buyer_out_balance;\n//\n//    next_process_trade_id = next_process_trade_id + 1;\n//    return true;\n//  }\n//\n//  function process_trades(uint64 max_steps) public {\n//    while (max_steps > 0) {\n//      max_steps = max_steps - 1;\n//      if (!process_next()) {\n//        return;\n//      }\n//    }\n//  }\n}\n",
  "sourcePath": "/home/plorio/merklex/crypto/settlement/contracts/MerkleX.sol",
  "compiler": {
    "name": "solc",
    "version": "0.4.24+commit.e67f0147.Emscripten.clang"
  },
  "schemaVersion": "2.0.1",
  "updatedAt": "2018-07-02T15:34:09.237Z"
}